:020000040000FA
:1000000001288316031306309F0083120313850112
:1000100083160313071183160313FF308500831221
:1000200003130C30970083120313950183160313F7
:10003000413092008312031300309800831203139F
:1000400006309200452083120313051A2A20851AD0
:100050003320232883120313FF301802031C45208A
:10006000980A3C200800831203131808003C031C64
:10007000452098033C200800FF30A000FF30A1007D
:10008000A10B4028A00B3E28080083120313180878
:100090008312031303399900190EF0390C388312B7
:1000A000031318089900990C190C3F3995000800A2
:02400E00313F40
:00000001FF
